:020000040000FA
:10000000C190C192C194836A956A600E026EDA0E45
:10001000036EF20E046E660E056EB60E066EBE0E12
:10002000076EE00E086EFE0E096EF60E0A6E010EE9
:100030000B6E936A8A6A816A946A8B6A826AC1804B
:10004000C182C1849380938293849386F19E8A981F
:100050008A8A8B8C8B8E81A002C083FF81A205C00F
:1000600083FF81A408C083FF81A60BC083FF8A8819
:100070008A9A8B8C8B8E81A003C083FF81A206C0DD
:1000800083FF81A409C083FF81A60BC083FF8A88F8
:100090008A8A8B9C8B8E81A004C083FF81A207C0BB
:1000A00083FF81A40AC083FF81A60BC083FF27EFD3
:1000B00000F0002E59EF00F0012E59EF00F0120071
:0200C00000003E
:020000040030CA
:0100010008F6
:010003001EDE
:0100050003F7
:010006008178
:00000001FF
